:020000006B286B
:08000600831685018601080044
:10000E008312851405140510051505110E088600BA
:10001E0085100330CC009730CD00CD0B1428CC0BBF
:10002E00142800000000051405100515051116080A
:10003E0086000330CC009730CD00CD0B2428CC0B9E
:10004E0024280000000005140510051505111808D8
:10005E0086000330CC009730CD00CD0B3428CC0B6E
:10006E0034280000000005140510051505111A08A6
:10007E0086000330CC009730CD00CD0B4428CC0B3E
:10008E004428000000000514051005150511100880
:10009E0086000330CC009730CD00CD0B5428CC0B0E
:1000AE00542800000000051405100515051112084E
:1000BE0086000330CC009730CD00CD0B6428CC0BDE
:0800CE00642800000000080096
:1000D60003208E018F018030C00080300F06400261
:1000E600031D77280E08053C031CE428960197019A
:1000F6008030C000803017064002031D8428160891
:10010600093C031CE028980199018030C00080302A
:1001160019064002031D91281808053C031CDC281B
:100126009A019B018030C00080301B064002031DEF
:100136009E281A08093C031CD8289001910180309A
:10014600C000803011064002031DAB281008053C94
:10015600031CD428920193018030C000803013061E
:100166004002031DB8281208093C031CD02894013C
:1001760095018030C000803015064002031DC52859
:100186001408A63C031CCC280720940A0319950AD8
:10019600BC28920A0319930AAF28900A0319910AF8
:1001A600A2289A0A03199B0A9528980A0319990AFC
:1001B6008828960A0319970A7B288E0A03198F0A3C
:0401C6006E28E42893
:02400E00FA3F77
:00000001FF
